:020000040000FA
:200100002A0600F90000C30C01C30000CD6203CDB808C37B048026B80780260029C37704B0
:20012000C37B04C39604C3E004C3C504C3BC05C34805C30106C32106C34B03C35D03C36A44
:2001400004C35504F80CCD320FCDB50DC3E15E235623E52A1501197E23666FC9E15E23E57C
:2001600016002A1501197E23666FC9E15E235623E52A1501196EC9E15E23E516002A1501E4
:20018000196EC9E15E235623E5EB097E23666FC9E15E23E5EB2600097E23666FC92101005A
:2001A000C82BC9210000C823C9210100D82BC9210000D823C9210100F02BC9210100F82B90
:2001C000C9110100C81BC9110000C813C9110100D81BC9110000D813C9110100F01BC91159
:2001E0000100F81BC97DBBC07CBAC9EB7ABCC07BBDC9EB7CBAC07DBBC9EB7CAAF2EC017AFD
:20020000B7F037C9EB7CAAF2F3017CB7F037C97AF5CD5A02EBCD5A02EBCD2902F1B7F07C7A
:200220002F677D2F6F23C900007CB5C8D5E5CD8902D1CD6B027C2F677D2F6F23D119C9AF59
:20024000326806CD5A02EBCD5A02CD6B023A68061FD07C2F677D2F6F23C97CB7F02F677DA1
:200260002F6F233A68063C326806C9C5CD7102C1C9444D21000078B1C8781F47791F4FD2A7
:20028000830219EB29EBC376027CB5C8C5CD94026069C1C906017CB7FAA0022904C39602B4
:2002A000EB78010000F5CDDD02DAB70203D57A2F577B2F5F1319D1AF7A1F577B1F5FF13D02
:2002C000C8F579174F781747C3A602AF326806CD5A02EBCD5A02EBCD8902C34D027CBAD852
:2002E000C07DBBC9EB1C1DC8AF7C1F677D1F6FC3E602EB1C1DC829C3F4027C2F677D2F6FEF
:2003000023C97A2F577B2F5F13C9210400397E23666FC9210600C30D03210800C30D032158
:200320000A00C30D03210C00C30D03210E00C30D03211000C30D0311500621040039C5064A
:200340000E7E12231305C24103C1C9210000392277062A060011CCF719F9C303012A7706B7
:20036000F9C9E1226A06217A08E52A1B0122640621E80322660621DC592248063EDB325EE5
:20038000063ED33261063EC9326006326306CD3E01AF3273063274063E1F3272063E0332E7
:2003A00076062100CC2240062110002244062140002242062100042246060E0BCD0500B7CF
:2003C00000CAC9030E01CD050021800011F907462378B7C2DC03110100C33A047E122313E2
:2003E00005C2DC03AF1221F907110100017C08AF3269067E23FE20CAF303B7CA3A04FE2230
:20040000C20904326906C30A042B7D02037C0203137E23B7CA3A04C5473A6906B778C1CA8B
:200420002E04FE22C21104AF3269062B7723FE20C211042B360023C3F303D5061B21DE0750
:2004400036002305C24004CD4101AF326E06323F062A6A06E92A1B01EB2A1501CDFA021987
:200460007CB5C81B2BAF12C36004C91B0122640621E8032266062121FFFFC93E10F5CDC56C
:2004800004DA8C046F2600E5CD9604E1F13DFE07C27D04C30901CD0A03CDC504DA77047EA6
:2004A000CD3201E604CAB804E5CD1303C5CDBC05EB0E10CD0500C1E1CD35013600FEFF21DD
:2004C0000000C02BC957D608D8FE093FD8D55F160021DE071919197EE60137D17AC83FC9EB
:2004E000C5CDA705E51306044ECD15002305C2E8020E20C315007AE6380F0F0FC9CDF6025F
:20050000874F213506094ECD1500234ECD15000E20CD1500C31500CDF602E606FE06C2B10D
:20052000020E53CD15000E50C31500CD2E002A0C007CCDC8027DCDC8020E20CD1500CD15F6
:2005400000C9210000392213003A1000B7CA640321FFFF220E003CC264033C3210002A0CA9
:2005600000C38A03CD9106C233052110007EB7CA760335CA33052A0C00CD9406CD2E000E47
:2005800020CD1500CD1500CD2E03CD960257213805011100BECAF004230DC294030E0ABE72
:2005A000CADC04230DC29F030E06BECAC104230DC2AA03E6C0FE40CAA704FE80CA98047A46
:2005C000E6C7D604CA89043DCA83043DCA6F047AE6C0CA3D047AE607CA3204D602CA2704D6
:2005E000D602CA1C04D603CA0D047AE608C2FE047AE6074F3D212C0609CDE602CDF602FE92
:2006000006C29204212906CDE602C36403212506CDE602CDF602CDC802C364030E43CD1593
:2006200000CDFD02C3CC040E4ACD1500CDFD02C3CC040E52CD1500CDFD02C36403210D005C
:2006400000CC400010000004C8D5C8D704FE03DA02000400320000FF001F0AFF0012DB64AF
:20066000C9D3E6C90029E80300CD0F01C3CC002109061F0000CD0302CDB1020E2CCD1500F2
:20068000C3E704210506C38C04210106CDE602CDF602CDB102C364037AE6380F4F21E105E4
:2006A00009CDE602C3B80421DD05CDE602CDF602CDB1020E2CCD15007AE607CDB102C364D6
:2006C000037987874F21C10509CDE602CD9602F5CD960257F15FCD8806C364037987874FDB
:2006E00021990509CDE602CD9602CD8506C364037987874F21550509CDE602C364032169D3
:2007000006CDE6027ACD8506C36403CD2E000E3FCD15002A1300F921000039221300CD2B3B
:2007200003221100CD7C06CD4D012A1100220C00C31E052A1300F9C900070F171F272F37F2
:200740003F76C9E3E9EBF3F9FBC6CED3D6DBDEE6EEF6FE222A323AC3CD45492020535048BE
:200760004C44492020584348475043484C5854484C52455420484C5420434D4320535443DF
:2007800020434D4120444141205241522052414C2052524320524C43204E4F50204350496D
:2007A000204F52492058524920414E492053424920494E2020535549204F55542041434939
:2007C000204144492043414C4C4A4D50204C444120535441204C484C4453484C444D000053
:2007E000000000000000000000000000000000000000000000000000004F524120434D5017
:2008000020494E5220444352204D5649204C58492053544158494E5820444144204C444194
:2008200058444358205253542050535720504F5020505553484E5A5A204E434320504F50DA
:200840004550204D20422043204420452048204C204D204120422020204420202048202078
:200860002053502020505357203F3F3D20000000000000C39706C39F06C30F16C3DE11C35B
:200880000612C3EF11C33412C35D12C34A14C3E112C34E12C37F12E3224B19E3C306DC2AD9
:2008A0000600229D0621970622010021000022060022EC19AF325019C3F708C3420FC3CA6F
:2008C0001AC3DE0EC3BF11C3DD0FC36510C3F80EC38D16C37C13C3F913C35516C38C25C320
:2008E0001A0EC37B17C33918C37814C39E15C35B0FC3E80DC3DD25C5CDBB08CDBE08CDC182
:20090000082A1501116C0219110000732372D52A1501116A0219D1732372D52A15011168CC
:200920000219D1732372D52A1501115D0219D173CD6B015C027DFE6ECA960DCDBB08CDC4D3
:2009400008CDC708CDCA082A15011160021936322336002A150111620219AF7723772A15FA
:200960000111660219110000732372D52A150111640219D17323722A150111700019E5CDC1
:20098000CD08D12A150111780019E5CDCD08D12A150111700019E5CDD008D17CB5CA4B0DEF
:2009A0002A150111700019E5CDD308D1CDD608217F00E52A150111700019E5CDD908D1D1C0
:2009C0002A1501117E0219360A233600CD4D016002E52A1501117C0219D17323722A150131
:2009E000115E0219AF772377210400E52A150111740019E52A150111700019E5CDDC08D19F
:200A0000D1D1CD4D017C0211FFFF197C17D21C0A2A1501115C02193600C3290ACDDF08E55B
:200A20002A1501115C0219D173CD6B015C027DB7C2E80A2A1501117E0219E57E23666FE501
:200A4000CD4D016002E5CD4D017C02D1CDFA0219D119EBE17323722A150111760019E57EE7
:200A600023666F110C0019EBE17323722A150111740019E5CDD008D17CB5CACD0A21210027
:200A8000E52A150111700019E5CDD908D1D1217F00E52A150111740019E5CDD908D1D121A9
:200AA0000400E52A150111700019E52A150111740019E5CDDC08D1D1D1CD4D016002E52A1B
:200AC0001501117C0219D1732372C3E50A2A150111700019E5CDE208D12A1501115E0219BC
:200AE0003601233600C3120D2A1501117C0219E57E23666F2B2B2BEBE1732372CD6B015C57
:200B0000027DFE35C2A70B2A150111760019E57E23666F110C0019EBE17323722A15011119
:200B2000740019E5CDD008D17CB5CAA40B2A150111760019E57E23666F110C0019EBE17373
:200B400023722A150111740019E5CDD008D17CB5C22D0B2A150111760019E57E23666F1150
:200B6000F4FF19EBE1732372212100E52A150111700019E5CDD908D1D1217F00E52A15019A
:200B800011740019E5CDD908D1D1210400E52A150111700019E52A150111740019E5CDDC4D
:200BA00008D1D1D1C3B20CCD6B015C027DFE30C2F00BCD4D01640211F6FF197C17D2ED0B3D
:200BC0002A1501116402195E235613722B732A150111660219E57E23666FE5CD4D016402B8
:200BE000110A00CD3F02D119EBE1732372C3B20CCD6B015C027DFE20CA0D0CFE37CA4E0C1F
:200C0000FE39CA5F0CFE38CA700CC3A60C212100E52A150111700019E5CDD908D1D12A1502
:200C200001115E021936012336002A1501117E021936102336272A150111660219E57E2391
:200C4000666F11CEFF19EBE1732372C3B20C2A1501117600195E23561B722B73C3B20C2AE6
:200C60001501117600195E235613722B73C3B20C2A1501117400195E235613722B73CD5C42
:200C80000174110400EBCD0F027CB5C2A30C2A150111740019E57E23666F2B2B2B2BEBE1AE
:200CA000732372C3B20C2A1501115C02193620C3B20CCD6B015C027DFE20CDA301E52A1545
:200CC0000111740019E5CDD008D1D17CA2677DA36F7CB5CA120D212100E52A150111700033
:200CE00019E5CDD908D1D1217F00E52A150111740019E5CDD908D1D1210400E52A150111B3
:200D0000700019E52A150111740019E5CDDC08D1D1D1CD4D015E027CB5CADD09CDE5082147
:200D20000400E52A150111700019E52A150111780019E5CDDC08D1D1D12A1501117800193E
:200D4000E5CDCD08D1CDE808C38F09CDEB08211700E5210000E5CDEE08D1D121A50DE5CD56
:200D6000F108D1CDDF08E52A1501115C0219D173CD6B015C027DFE64CDA301E5CD6B015CA3
:200D8000027DFE6ECDA301D17CA2677DA36F7CB5C2630DC33009210F00E5210400E5CDF4D3
:200DA00008D1D1C1C970726F646F6C76696D203F00C3BA0DC30126C3DD25C521000039F973
:200DC000444D210400096E7DFE0AC2D50D210D00E5CDB40DD1210400096E2600E52104007F
:200DE000E5CDB70DD1D1C1C9C3EE0DC30126C521000039F9444DCD9001046E7DB7CA180E0C
:200E0000210400095E235613722B731BEB6E2600E5CDEB0DD1C3F60DC1C9C3200EC3DD258F
:200E2000C521FBFF39F9444D21020009AF7723772104000936006069AF772377210200E52E
:200E4000CD1D0ED17CB5CA570E210300E5CD1D0ED1EB210400097360695E235613722B7348
:200E600021FBFF197C17CDA901E5210400096E7DB7CD9D01D17CA2677DA36F7CB5C23C0EF2
:200E8000210200095E235613722B731BD5CD4D017C02D1CDFA01CDA901E5210400096E7D95
:200EA000B7CD9D01D17CA2677DA36F7CB5C2360E2A1501117C0219E57E23666FE5CD90016E
:200EC00002D1CDFA0219EBE1732372210400096E2600C3D50EEB21050039F9EBC1C9C3E4C2
:200EE0000EC33026C521EF0EE5CDE10ED1C1C96E617E6E656D203F00C3010FC3AA1FC35886
:200F000026C521FEFF39F9444DCDFE0EE5CDFB0ED1EB6069732372CD900106E5CD9001003D
:200F2000110700EBCD0F022929EBE1732372CD90010623233605233600EB21020039F9EB41
:200F4000C1C9C3480FC3E80DC521530FE5CD450FD1C1C91F1B36371B373100C3610FC3DD8F
:200F600025C521000039F9444D211B00E5210400E5CD5E0FD1D1213500E5210400E5CD5E2C
:200F80000FD1D1CD90010611200019E5210400E5CD5E0FD1D1CD90010411200019E5210471
:200FA00000E5CD5E0FD1D1C1C9C3AF0FC35B0FC521000039F9444DCD900104110C00EBCD58
:200FC000CB022323E5CD900104110C00EBCD0F0229111E0019E5CDAC0FD1D1C1C9C521FEE3
:200FE000FF39F9444D6069AF772377CD9001001110FF197C17D25C10CD90010029E52A1593
:2010000001117C0019D119E5CD900100110C00EBCD0F027CB5CD9D01CA4210CD90010011EF
:201020000C00EBCD0F0211F5FF197CB5CD9D01CA4210CD900100111BFF197C17CDAF01DA79
:201040004810210100C34B10210000EBE173237260695E235613722B73C3EB0FEB21020075
:2010600039F9EBC1C9C36E10C3A90FC3DD25C521FEFF39F9444D6069AF772377CD900100BB
:201080001110FF197C17D2D010CD90010029E52A1501117C0019D1197E23666F7CB5C2C469
:2010A00010CD900100E5CD6810D1212100E5210400E5CD6B10D1D1212100E5210400E5CDAE
:2010C0006B10D1D160695E235613722B73C37C10EB21020039F9EBC1C9C3DF10C3DD25C5F0
:2010E00021FEFF39F9444D6069AF772377CD90010829E52A150111380019D1197E23666F10
:20110000E5CD900100D1196E7DFE43CA2011FE4CCA4511FE52CA6211FE44CA7F11C38F1185
:20112000210600096E2600E5210400E5CDDC10D1D1210600096E2600E5210400E5CDDC1035
:20114000D1D1C38F11210800E5210400E5CDDC10D1D1210800E5210400E5CDDC10D1D1C3E1
:201160008F11211800E5210400E5CDDC10D1D1211800E5210400E5CDDC10D1D1C38F112145
:201180001A00E5210400E5CDDC10D1D1C38F11CD90010829E52A150111380019D1197E23E7
:2011A000666FE560695E235613722B731BE1196E7DFE45C2ED10EB21020039F9EBC1C9C338
:2011C000CB11C35B0FC3E80DC3D910C521FEFF39F9444D210000E5210000E5CDC211D1D1AE
:2011E00021BB12E5CDC511D121D312E5CDC511D121E312E5CDC511D121F312E5CDC511D15B
:20120000210600E5210000E5CDC211D1D1210313E5CDC511D1210F00E5210000E5CDC2112F
:20122000D1D1210E13E5CDC511D1211B13E5CDC511D1212813E5CDC511D1213313E5CDC536
:2012400011D1214113E5CDC511D1214D13E5CDC511D1216513E5CDC511D16069AF77237789
:20126000CD90010011F9FF197C17D2B212CD90010029E52A1501116E0219D119AF772377D5
:20128000CD900100110300CD3F022323E5213C00E5CDC211D1D1CD9001002929E5217F00EA
:2012A000E5CDC811D1D160695E235613722B73C36012EB21020039F9EBC1C92020202020B4
:2012C000202074656B757D696A20206C757E7B696A0A006F7E6B69202020202020202020ED
:2012E000200A006C696E69692020202020202020200A0075726F77656E78202020202020AD
:20130000200A00736C656475607D61710A0075707261776C656E69653A0A0070726F626535
:201320006C2D776E697A0A0037202D20776C65776F0A0038202D207772617D656E69650A4F
:201340000039202D2077707261776F0A0035202D20756E697E746F76656E69652066696781
:201360007572790A0030202D207577656C697E656E69652075726F776E710A00C38513C32D
:201380005B0FC3CD1FC521FEFF39F9444DCD9001067E23666F110400EBCDCB02EB606973F3
:2013A0002372CD90010029E52A1501116E0219D1195E235613722B73CD900100110300CD2F
:2013C0003F022323E5214600E5CD7F13D1D1CD90010029E52A1501116E0219D1197E23661D
:2013E0006FE521F413E5CD8213D1D1EB21020039F9EBC1C92533640A00C30514C35B0FC341
:20140000E80DC3D910C5210700E5210000E5CDFC13D1D1215014E5CDFF13D1215A14E5CD7A
:20142000FF13D1216414E5CDFF13D1216E14E5CDFF13D1210700E5210000E5CDFC13D1D1D2
:20144000CD5C0178E5217F00E5CD0214D1D1C1C920202020202020200A00202020202020A7
:2014600020200A0020202020202020200A0020202020202020200A00C38414C3DD25C35BD0
:201480000FC3CD1FC521FEFF39F9444DCD4D016202110A00EBCDCB02EB6069732372CD90B0
:2014A0000100E5CD4D016402D1CD0502D2CC14210700E5210400E5CD7B14D1D1CD900100FB
:2014C000E52A150111640219D1732372CD4D01640211F6FF197C17D2FB14CD4D01640211D8
:2014E0000500CD3F02113200CDFA0219E52A150111600219D1732372C307152A150111609A
:20150000021936032336002A150111660219E57E23666FE5CD4D017E0211E803CDCB02E5F6
:20152000CD4D016402D119D119EBE1732372210100E5210700E5CD7E14D1D1CD4D016602EA
:20154000E5218B15E5CD8114D1D1210200E5210700E5CD7E14D1D1CD4D016202E5219115BB
:20156000E5CD8114D1D1210300E5210700E5CD7E14D1D1CD4D016402E5219715E5CD8114F1
:20158000D1D1EB21020039F9EBC1C9253035640A00253033640A0020253032640A00C3A787
:2015A00015C35B0FC3CD1FC5CD4D016602E5CD4D016C02D1CD0502D2ED15CD4D016602E5A3
:2015C0002A1501116C0219D1732372CD4D016402E52A1501116A0219D1732372CD4D0162C8
:2015E00002E52A150111680219D1732372210100E5211000E5CDA115D1D1CD4D016C02E5A7
:20160000214316E5CDA415D1D1210200E5211000E5CDA115D1D1CD4D016802E5214916E531
:20162000CDA415D1D1210300E5211000E5CDA115D1D1CD4D016A02E5214F16E5CDA415D110
:20164000D1C1C9253035640A00253033640A00253032640A00C35E16C3A90FC3D910C52108
:20166000000039F9444DCD90010423237E23666FE5CD5816D1CD9001047E23666FE52106B4
:2016800000096E2600E5CD5B16D1D1C1C9C521F8FF39F9444D21060009AF772377CD900170
:2016A0000C7E23666F29EB2A1501197E23666FEB21020009732372CD90010C23237E2366EF
:2016C0006FEB21040009732372CD900102110200EBCD0F02E5CD90010429E52A1501117C1C
:2016E0000019D1197E23666FD17CA2677DA36FEB6069732372210600095E235613722B73A6
:20170000210400095E235613722B73CD9001062B2B2B2B7CB5C2321721060009AF77237765
:2017200021040009E57E23666F11080019EBE173237221020009E57E23666F110200EBCDC8
:20174000CB02EBE1732372CD9001027CB5CDA301E5CD9001007CB5CDC101E17CA2677DA35D
:201760006F7CB5C2C916CD9001007CB5CD9D01C37217EB21080039F9EBC1C9C521FAFF390F
:20178000F9444D6069AF772377CD90010A7E23666F29EB2A1501197E23666FEB210200095E
:2017A000732372CD90010A23237E23666FEB21040009732372CD900102110200EBCD0F02A0
:2017C0007CB5CAD917CD90010429E52A1501117C0019D119360123360060695E2356137229
:2017E0002B73210400095E235613722B73CD9001002B2B2B2B7CB5C212186069AF77237773
:2018000021040009E57E23666F11080019EBE173237221020009E57E23666F110200EBCDE7
:20182000CB02EBE1732372CD9001027CB5C2B517EB21060039F9EBC1C9C34218C3A90FC3D4
:20184000DD25C521F5FF39F9444D606911D8007323722102000973237221080009110100B7
:2018600073237221060009732372210400093601233600CD90010411F5FF197C17D2F3187A
:2018800021060009E57E23666FE5CD900100E5CD900104D11929E52A1501117C0019D1196B
:2018A0007E23666F7CB5CD9D01D17CA2677DA36FEBE173237221080009E57E23666FE5CD1E
:2018C000900100E5CD900104D11929E52A1501117C0019D1197E23666FD17CA2677DA36F0D
:2018E000EBE1732372210400095E235613722B73C37318CD9001067CB5CA8619CD90010042
:20190000E5CD900102D1CDE501CA8319CD90010223E5CD3C18D1210400093601233600CDB3
:2019200090010411F5FF197C17D26E19CD900102E5CD900104D11929E52A1501117C001983
:20194000D119AF772377212100E5210400E5CD3F18D1D1212100E5210400E5CD3F18D1D1EF
:20196000210400095E235613722B73C31F1921020009E57E23666F11F4FF19EBE1732372CC
:20198000C3FC18C3921ACD9001087CB5CABF192A1501116202195E235613722B732A1501C0
:2019A00011660219E57E23666FE5CD4D016402110500CD3F02D119EBE1732372C3921ACDB6
:2019C000900100E5CD900102D1CDE501CA801ACD90010223E5CD3C18D12104000936012367
:2019E0003600CD90010411F5FF197C17D2801ACD900102E5CD900104D11929E52A15011142
:201A00007C0019D119E5CD900100E5CD900104D11929E52A1501117C0019D1197E23666F7F
:201A2000EBE1732372210A00093621CD900100E5CD900104D11929E52A1501117C0019D1F3
:201A4000197E23666F7CB5CA501A210A0009367F210A00096E2600E5210400E5CD3F18D1FD
:201A6000D1210A00096E2600E5210400E5CD3F18D1D1210400095E235613722B73C3E21932
:201A800021020009E57E23666F11F4FF19EBE17323726069E57E23666F11F4FF19EBE1734E
:201AA0002372CD9001007C17CDAF01E5CD9001067CB5CDC101E17CA2677DA36F7CB5C259D9
:201AC00018EB210B0039F9EBC1C9C3D01AC3DD25C521CE1DE52A150111380019D17323728D
:201AE00021DF1DE52A1501113A0019D173237221F01DE52A1501113C0019D17323722101B3
:201B00001EE52A1501113E0019D173237221121EE52A150111400019D173237221231EE541
:201B20002A150111420019D173237221341EE52A150111440019D173237221451EE52A1599
:201B40000111460019D173237221561EE52A150111480019D173237221671EE52A1501115A
:201B60004A0019D173237221781EE52A1501114C0019D173237221891EE52A1501114E00B2
:201B800019D1732372219A1EE52A150111500019D173237221AB1EE52A150111520019D1A6
:201BA00073237221BC1EE52A150111540019D173237221CD1EE52A150111560019D173238E
:201BC0007221DE1EE52A150111580019D173237221EF1EE52A1501115A0019D17323722125
:201BE000001FE52A1501115C0019D173237221111FE52A1501115E0019D173237221221F09
:201C0000E52A150111600019D173237221331FE52A150111620019D173237221441FE52AAC
:201C2000150111640019D173237221551FE52A150111660019D173237221661FE52A150139
:201C400011680019D173237221771FE52A1501116A0019D173237221881FE52A1501116C66
:201C60000019D173237221991FE52A1501116E0019D17323722A150136172336002A1501DD
:201C8000232336112336032A15011104001936742336002A15011106001936232336022A9C
:201CA00015011108001936472336002A1501110A001936132336012A1501110C00193671D2
:201CC0002336002A1501110E001936222336032A15011110001936632336002A15011112B0
:201CE000001936322336012A15011114001936632336002A15011116001936322336012A2D
:201D000015011118001936362336002A1501111A001936312336022A1501111C001936366E
:201D20002336002A1501111E001936312336022A15011120001936272336002A150111224D
:201D4000001936312336012A15011124001936722336002A15011126001936322336022A9D
:201D600015011128001936332336002A1501112A001936332336002A1501112C00193633E4
:201D80002336002A1501112E001936332336002A150111300019360F2336002A15011132D5
:201DA000001936222336222A150111340019360F2336002A15011136001936222336222167
:201DC0000E00E5210400E5CDCD1AD1D1C1C9434343444C4C4C434545454545454545004387
:201DE000444C43444C4343454545454545454500525243444C4C4C4343434545454545455C
:201E0000004343444C43444C43454545454545454500434343444C434545454545454545AA
:201E20004545004343444C4C43444C43454545454545450043444C43434345454545454583
:201E400045454545005243444C43444C4C4343454545454545004343444C43434545454556
:201E6000454545454545005243444C4C4343444C4C434545454545004343444C434345452F
:201E80004545454545454545005243444C4C4343444C4C43454545454500524343444C4CF7
:201EA0004C4343454545454545450043444C4343444C4345454545454545450052434344FD
:201EC0004C4C4C4343454545454545450043444C4343444C434545454545454545004343DB
:201EE00043444C4C434545454545454545450043444C4343444C4C434545454545454500B8
:201F00005243444C4C4343434545454545454545005243444C4C4343444C4345454545453C
:201F200045004343444C4C4343454545454545454545004343444C4C434345454545454581
:201F4000454545004343444C4C4343454545454545454545004343444C4C43434545454561
:201F600045454545450043434343454545454545454545454545005243444C43444C434441
:201F80004C4345454545450043434343454545454545454545454545005243444C43444C19
:201FA00043444C43454545454500C521000039F9444DCD9001047C17D2C51FCD900104CD2F
:201FC000FA02C3C91FCD900104C1C9C1C9C3D61FC30126C3F01FC521000039F9444D2AD1CC
:201FE0001FE521040009E5CDD31FD1D1C1C9C1C9C3FF1FC3E923C39124C3C024C32325C5B6
:202000002159FF39F9444D21AB00095E23561313722B731B1BEB7E23666FEB21040009737F
:202020002372CD9001ABEB21A50009732372210400095E235613722B731BEB6EEB6069737D
:202040007BB7CADA2360696E7DFE25C2AB2321060009EB219C000973237221A3000936062E
:2020600023360021A000091E0073219E000973219F000973CD9001046E7DFE2DC28F20212B
:202080000400095E235613722B73219F000934CD9001046E7DFE30C29F2021A0000934CD75
:2020A0009001046E2600E5CDF61FD17DB7CABC2021040009E5CDF91FD1C3BF20210000EB0E
:2020C00021A10009732372210400095E235613722B731BEB6EEB6069737BFE2EC2072121B8
:2020E000040009E5CDF91FD1EB21A30009732372219E000934210400095E235613722B7354
:202100001BEB6EEB60697360696E2600E5CDFC1FD17DFE44CA3821FE55CA7421FE58CA7DF8
:2021200021FE4FCA8621FE43CACC21FE53CAFD21FE00CA7623C37C23CD9001A57E23666F53
:202140007C17D27421219C00095E235613722B731BEB362DCD9001A5E5CD9001A57E23666A
:202160006FCDFA02EBE173237221A100095E23561B722B7321010009360AC38C2121010089
:20218000093610C38C2121010009360821A10009E57E23666FE5210100096E2600E521A5A2
:2021A00000095E23561313722B731B1BEB7E23666FE5219C0009E5CDF31FD1D1D1D1AF67A9
:2021C000CDFA0219EBE1732372C37522219C00095E235613722B731BD521A500095E235699
:2021E0001313722B731B1BEB7E23666FEBE17321A100095E23561B722B73C37522219E00ED
:20220000096E7DB7C2102221A3000936C823360021A500095E23561313722B731B1BEB7E80
:2022200023666FEB21020009732372CD9001026E7DB7CA7522CD9001A37CB5CA7522219CD4
:2022400000095E235613722B731BD5210200095E235613722B731BEB6EEBE17321A30009E5
:202260005E23561B722B7321A100095E23561B722B73C32B22CD90019C360021060009EB34
:20228000219C0009732372219F00096E7DB7C2E32221A100095E23561B722B731321FFFF3F
:2022A000197C17DAE322CD9001ADE5CD9001AFE521A000096E7DB7CAC022213000C3C322A0
:2022C000212000E521D122E5210600397E23666FE9D1D1D1237CB5C2E02221FFFFC3E023B0
:2022E000C39122CD90019C6E7DB7CA2723CD9001ADE5CD9001AFE5219C00095E23561372B4
:202300002B731BEB6E2600E5211523E5210600397E23666FE9D1D1D1237CB5C2242321FFB3
:20232000FFC3E023C3E322219F00096E7DB7CA732321A100095E23561B722B731321FFFF46
:20234000197C17DA7323CD9001ADE5CD9001AFE5212000E5216123E5210600397E23666FF9
:20236000E9D1D1D1237CB5C2702321FFFFC3E023C33123C3A823210000C3E023CD9001ADDC
:20238000E5CD9001AFE560696E2600E5219923E5210600397E23666FE9D1D1D1237CB5C21A
:2023A000A82321FFFFC3E023C3D723CD9001ADE5CD9001AFE560696E2600E521C823E5217A
:2023C0000600397E23666FE9D1D1D1237CB5C2D72321FFFFC3E023C32E20210000C3E023FF
:2023E000EB21A70039F9EBC1C9C3EF23C3E923C521FFFF39F9444DCD900107E5CD90010987
:20240000D1CDEC01D23D24CD9001055E235613722B731BD5CD90010711F6FF19DA2A24CD38
:2024200090010711300019C33224CD90010711370019EBE1732101002600C38824CD900177
:2024400009E5CD900107E5CD900109D1CD8902E5CD900105E5CDEC23D1D1D1EB606973CD44
:20246000900109E5CD900107E5CD900109D1CD2902E5CD900105E5CDEC23D1D1D160696EB0
:202480002600232600C38824EB21010039F9EBC1C9C521000039F9444D210400096E26003F
:2024A00011D0FF197C17CDAF01DABC24210400096E260011C6FF197C17CDA901C1C9C1C98A
:2024C000C3C624C39124C521FEFF39F9444D6069AF772377CD9001067E23666F6E2600E555
:2024E000CDC324D17DB7CA1325CD900100110A00CD3F02E5CD9001065E235613722B731B3C
:20250000EB6ED1AF671911D0FF19EB6069732372C3D424CD900100C31A25EB21020039F952
:20252000EBC1C9C32925C35D25C521000039F9444D210400096E2600E5CD2625D17CB5CA9C
:202540005025210400096E260011E0FF19C35725210400096E26002600C1C9C1C9C521001A
:202560000039F9444D210400096E2600119FFF197C17CDAF01DA8825210400096E260011A4
:2025800085FF197C17CDA901C1C9C1C9CD37032A54067CB5C8C5444D2A5206EB2A5006CDEC
:2025A000DD02DABB253E023CEAAF25EDB0C1C97E1223130B78B1C2AF25C1C90B09EB09EB14
:2025C000033E023CEACB25EDB8C1C97E122B1B0B78B1C2CB25C1C97CBAC07DBBC9CD37032F
:2025E000C52A01002B2B2B3A50064787805F160019E52A5206444D21FC25E3E96F2600C1A2
:20260000C9CD0A03C50E02FE0AC215261E0DCD05000E023E0A5FCD05000E0BCD0500B7C253
:202620002426C1C90E01CD0500FE03CA2001C1C9C33626C3E80DCD0A03E5CD3326E1C521EC
:202640007856E50E0BCD0500E1232323B7CA4226224806224A06C1C92A4806EB3E48A3CAE7
:202660006626EA6626372A4A067C17677D176F224A067A17677B176F2248067CE67F67C9BE
:20268000170011037400230247001301710022036300320163003201360031023600310287
:2026A000270031017200320233003300330033000F0022220F002222CE1DDF1DF01D011E96
:2026C000121E231E341E451E561E671E781E891E9A1EAB1EBC1ECD1EDE1EEF1E001F111F00
:2026E000221F331F441F551F661F771F881F991F0400110004001D000400050001000000B6
:202700000000000000000000000000000000000000000100010000000000000000000000B7
:20272000000000000000000000000100010000000000000000000000000000000000000097
:20274000000001000100000000000000000000000000000000000000000001000100000075
:20276000000000000000000000000000000000000000010001000000000000000000000057
:20278000000000000000000000000100010000000000000000000000000000000000000037
:2027A000000001000100000000000000000000000000000000000000000001000100000015
:2027C0000000000000000000000000000000000000000100010000000000000000000000F7
:2027E0000000000000000000000001000100000000000000000000000000000000000000D7
:202800000000010001000000000000000000000000000000000000000000010001000000B4
:20282000000000000000000000000000000000000000010001000000000000000000000096
:20284000000000000000000000000100010000000000000000000000000000000000000076
:20286000000001000100000000000000000000000000000000000000000001000100000054
:20288000000000000000000000000000000000000000010001000000000000000000010035
:2028A000010001000000000000000100010000000000000000000000010000000000000013
:2028C0000000010001000100010001000100010001000100010001000100010000000000EB
:2028E000320000000000CFFF0000000000000000010001000000010000000000FFFF700067
:10290000310028C33200CD006A00CD006A000E01FC
:00000001FF
